{
  "contractName": "Example",
  "abi": [
    {
      "inputs": [],
      "stateMutability": "nonpayable",
      "type": "constructor"
    },
    {
      "inputs": [],
      "name": "DAOLAUNCH_DEV",
      "outputs": [
        {
          "internalType": "address",
          "name": "",
          "type": "address"
        }
      ],
      "stateMutability": "view",
      "type": "function"
    },
    {
      "inputs": [
        {
          "internalType": "address",
          "name": "_addr",
          "type": "address"
        },
        {
          "internalType": "uint8",
          "name": "_v",
          "type": "uint8"
        },
        {
          "internalType": "bytes32",
          "name": "_r",
          "type": "bytes32"
        },
        {
          "internalType": "bytes32",
          "name": "_s",
          "type": "bytes32"
        }
      ],
      "name": "getIsValidAccessAddress",
      "outputs": [
        {
          "internalType": "address",
          "name": "",
          "type": "address"
        }
      ],
      "stateMutability": "view",
      "type": "function"
    },
    {
      "inputs": [
        {
          "internalType": "address",
          "name": "_addr",
          "type": "address"
        }
      ],
      "name": "testRecovery1",
      "outputs": [
        {
          "internalType": "bytes32",
          "name": "",
          "type": "bytes32"
        }
      ],
      "stateMutability": "view",
      "type": "function"
    }
  ],
  "bytecode": "0x608060405234801561001057600080fd5b507375d69272c5a9d6fcec0d68c547776c7195f73fea6000806101000a81548173ffffffffffffffffffffffffffffffffffffffff021916908373ffffffffffffffffffffffffffffffffffffffff16021790555061053b806100746000396000f3fe608060405234801561001057600080fd5b50600436106100415760003560e01c80630a75da19146100465780633a7dd491146100645780636f8c69e114610094575b600080fd5b61004e6100c4565b60405161005b9190610226565b60405180910390f35b61007e60048036038101906100799190610272565b6100e8565b60405161008b91906102b8565b60405180910390f35b6100ae60048036038101906100a99190610338565b61011f565b6040516100bb9190610226565b60405180910390f35b60008054906101000a900473ffffffffffffffffffffffffffffffffffffffff1681565b60008030836040516020016100fe9291906103e7565b60405160208183030381529060405280519060200120905080915050919050565b600061012d85858585610137565b9050949350505050565b600080308660405160200161014d9291906103e7565b604051602081830303815290604052805190602001209050600181604051602001610178919061048b565b60405160208183030381529060405280519060200120868686604051600081526020016040526040516101ae94939291906104c0565b6020604051602081039080840390855afa1580156101d0573d6000803e3d6000fd5b50505060206040510351915050949350505050565b600073ffffffffffffffffffffffffffffffffffffffff82169050919050565b6000610210826101e5565b9050919050565b61022081610205565b82525050565b600060208201905061023b6000830184610217565b92915050565b600080fd5b61024f81610205565b811461025a57600080fd5b50565b60008135905061026c81610246565b92915050565b60006020828403121561028857610287610241565b5b60006102968482850161025d565b91505092915050565b6000819050919050565b6102b28161029f565b82525050565b60006020820190506102cd60008301846102a9565b92915050565b600060ff82169050919050565b6102e9816102d3565b81146102f457600080fd5b50565b600081359050610306816102e0565b92915050565b6103158161029f565b811461032057600080fd5b50565b6000813590506103328161030c565b92915050565b6000806000806080858703121561035257610351610241565b5b60006103608782880161025d565b9450506020610371878288016102f7565b935050604061038287828801610323565b925050606061039387828801610323565b91505092959194509250565b60008160601b9050919050565b60006103b78261039f565b9050919050565b60006103c9826103ac565b9050919050565b6103e16103dc82610205565b6103be565b82525050565b60006103f382856103d0565b60148201915061040382846103d0565b6014820191508190509392505050565b600081905092915050565b7f19457468657265756d205369676e6564204d6573736167653a0a333200000000600082015250565b6000610454601c83610413565b915061045f8261041e565b601c82019050919050565b6000819050919050565b6104856104808261029f565b61046a565b82525050565b600061049682610447565b91506104a28284610474565b60208201915081905092915050565b6104ba816102d3565b82525050565b60006080820190506104d560008301876102a9565b6104e260208301866104b1565b6104ef60408301856102a9565b6104fc60608301846102a9565b9594505050505056fea2646970667358221220dc91e23d52c9113e6ec10911e82b433d313c8f46829e07b183dfe52deb64dd4564736f6c634300080b0033",
  "immutableReferences": {},
  "source": "pragma solidity >=0.7.0 <0.9.0;\r\n\r\ncontract Example{\r\n    \r\n   address public DAOLAUNCH_DEV;\r\n\r\n    constructor() {\r\n        DAOLAUNCH_DEV = payable(0x75d69272c5A9d6FCeC0D68c547776C7195f73feA); \r\n    }\r\n\r\n    function getIsValidAccessAddress(address _addr, uint8 _v, bytes32 _r, bytes32 _s) public view returns(address) {\r\n        return isValidAccessMsg(_addr, _v, _r, _s);\r\n    }\r\n\r\n    function isValidAccessMsg(\r\n        address _addr,\r\n        uint8 _v,\r\n        bytes32 _r,\r\n        bytes32 _s\r\n    ) internal view returns (address) {\r\n        bytes32 hash = keccak256(abi.encodePacked(address(this), _addr));\r\n        return\r\n            ecrecover(\r\n                keccak256(\r\n                    abi.encodePacked(\"\\x19Ethereum Signed Message:\\n32\", hash)\r\n                ),\r\n                _v,\r\n                _r,\r\n                _s\r\n            );\r\n    }\r\n     function testRecovery1(address _addr) public view returns (bytes32) {\r\n        bytes32 hash = keccak256(abi.encodePacked(address(this), _addr));\r\n        return hash;\r\n    }\r\n}",
  "sourcePath": "C:\\Users\\Admin\\Desktop\\Project\\DemoTruffle\\contracts\\Example.sol",
  "compiler": {
    "name": "solc",
    "version": "0.8.11+commit.d7f03943.Emscripten.clang"
  },
  "schemaVersion": "3.4.4",
  "updatedAt": "2022-04-12T09:28:03.317Z",
  "devdoc": {
    "kind": "dev",
    "methods": {},
    "version": 1
  },
  "userdoc": {
    "kind": "user",
    "methods": {},
    "version": 1
  }
}