{
  "contractName": "Recover",
  "abi": [
    {
      "inputs": [
        {
          "internalType": "bytes32",
          "name": "hash",
          "type": "bytes32"
        },
        {
          "internalType": "bytes",
          "name": "signature",
          "type": "bytes"
        }
      ],
      "name": "recover",
      "outputs": [
        {
          "internalType": "address",
          "name": "",
          "type": "address"
        }
      ],
      "stateMutability": "pure",
      "type": "function",
      "constant": true
    },
    {
      "inputs": [
        {
          "internalType": "bytes32",
          "name": "hash",
          "type": "bytes32"
        },
        {
          "internalType": "uint8",
          "name": "v",
          "type": "uint8"
        },
        {
          "internalType": "bytes32",
          "name": "r",
          "type": "bytes32"
        },
        {
          "internalType": "bytes32",
          "name": "s",
          "type": "bytes32"
        }
      ],
      "name": "recover1",
      "outputs": [
        {
          "internalType": "address",
          "name": "",
          "type": "address"
        }
      ],
      "stateMutability": "pure",
      "type": "function",
      "constant": true
    },
    {
      "inputs": [
        {
          "internalType": "bytes32",
          "name": "hash",
          "type": "bytes32"
        }
      ],
      "name": "toEthSignedMessageHash",
      "outputs": [
        {
          "internalType": "bytes32",
          "name": "",
          "type": "bytes32"
        }
      ],
      "stateMutability": "pure",
      "type": "function",
      "constant": true
    }
  ],
  "bytecode": "0x608060405234801561001057600080fd5b5061097f806100206000396000f3fe608060405234801561001057600080fd5b50600436106100415760003560e01c806319045a25146100465780637ac84b5b14610076578063918a15cf146100a6575b600080fd5b610060600480360381019061005b919061049b565b6100d6565b60405161006d9190610538565b60405180910390f35b610090600480360381019061008b919061058c565b610150565b60405161009d9190610538565b60405180910390f35b6100c060048036038101906100bb91906105f3565b6102db565b6040516100cd919061062f565b60405180910390f35b6000604182511461011c576040517f08c379a0000000000000000000000000000000000000000000000000000000008152600401610113906106a7565b60405180910390fd5b60008060006020850151925060408501519150606085015160001a905061014586828585610150565b935050505092915050565b60007f7fffffffffffffffffffffffffffffff5d576e7357a4501ddfe92f46681b20a08260001c11156101b8576040517f08c379a00000000000000000000000000000000000000000000000000000000081526004016101af90610739565b60405180910390fd5b601b8460ff1614806101cd5750601c8460ff16145b61020c576040517f08c379a0000000000000000000000000000000000000000000000000000000008152600401610203906107cb565b60405180910390fd5b60006001868686866040516000815260200160405260405161023194939291906107fa565b6020604051602081039080840390855afa158015610253573d6000803e3d6000fd5b505050602060405103519050600073ffffffffffffffffffffffffffffffffffffffff168173ffffffffffffffffffffffffffffffffffffffff1614156102cf576040517f08c379a00000000000000000000000000000000000000000000000000000000081526004016102c69061088b565b60405180910390fd5b80915050949350505050565b6000816040516020016102ee9190610923565b604051602081830303815290604052805190602001209050919050565b6000604051905090565b600080fd5b600080fd5b6000819050919050565b6103328161031f565b811461033d57600080fd5b50565b60008135905061034f81610329565b92915050565b600080fd5b600080fd5b6000601f19601f8301169050919050565b7f4e487b7100000000000000000000000000000000000000000000000000000000600052604160045260246000fd5b6103a88261035f565b810181811067ffffffffffffffff821117156103c7576103c6610370565b5b80604052505050565b60006103da61030b565b90506103e6828261039f565b919050565b600067ffffffffffffffff82111561040657610405610370565b5b61040f8261035f565b9050602081019050919050565b82818337600083830152505050565b600061043e610439846103eb565b6103d0565b90508281526020810184848401111561045a5761045961035a565b5b61046584828561041c565b509392505050565b600082601f83011261048257610481610355565b5b813561049284826020860161042b565b91505092915050565b600080604083850312156104b2576104b1610315565b5b60006104c085828601610340565b925050602083013567ffffffffffffffff8111156104e1576104e061031a565b5b6104ed8582860161046d565b9150509250929050565b600073ffffffffffffffffffffffffffffffffffffffff82169050919050565b6000610522826104f7565b9050919050565b61053281610517565b82525050565b600060208201905061054d6000830184610529565b92915050565b600060ff82169050919050565b61056981610553565b811461057457600080fd5b50565b60008135905061058681610560565b92915050565b600080600080608085870312156105a6576105a5610315565b5b60006105b487828801610340565b94505060206105c587828801610577565b93505060406105d687828801610340565b92505060606105e787828801610340565b91505092959194509250565b60006020828403121561060957610608610315565b5b600061061784828501610340565b91505092915050565b6106298161031f565b82525050565b60006020820190506106446000830184610620565b92915050565b600082825260208201905092915050565b7f45434453413a20696e76616c6964207369676e6174757265206c656e67746800600082015250565b6000610691601f8361064a565b915061069c8261065b565b602082019050919050565b600060208201905081810360008301526106c081610684565b9050919050565b7f45434453413a20696e76616c6964207369676e6174757265202773272076616c60008201527f7565000000000000000000000000000000000000000000000000000000000000602082015250565b600061072360228361064a565b915061072e826106c7565b604082019050919050565b6000602082019050818103600083015261075281610716565b9050919050565b7f45434453413a20696e76616c6964207369676e6174757265202776272076616c60008201527f7565000000000000000000000000000000000000000000000000000000000000602082015250565b60006107b560228361064a565b91506107c082610759565b604082019050919050565b600060208201905081810360008301526107e4816107a8565b9050919050565b6107f481610553565b82525050565b600060808201905061080f6000830187610620565b61081c60208301866107eb565b6108296040830185610620565b6108366060830184610620565b95945050505050565b7f45434453413a20696e76616c6964207369676e61747572650000000000000000600082015250565b600061087560188361064a565b91506108808261083f565b602082019050919050565b600060208201905081810360008301526108a481610868565b9050919050565b600081905092915050565b7f19457468657265756d205369676e6564204d6573736167653a0a333200000000600082015250565b60006108ec601c836108ab565b91506108f7826108b6565b601c82019050919050565b6000819050919050565b61091d6109188261031f565b610902565b82525050565b600061092e826108df565b915061093a828461090c565b6020820191508190509291505056fea2646970667358221220b8525ad3cec8762ca15b2f5adf6e36d974a58ba28e60ff09e6077ea88c5cca6964736f6c634300080b0033",
  "immutableReferences": {},
  "source": "pragma solidity >=0.7.0 <0.9.0;\r\n\r\ncontract Recover{\r\n    \r\n  function recover(bytes32 hash, bytes memory signature) public pure returns (address) {\r\n        if (signature.length != 65) {\r\n            revert(\"ECDSA: invalid signature length\");\r\n        }\r\n        bytes32 r;\r\n        bytes32 s;\r\n        uint8 v;\r\n        assembly {\r\n            r := mload(add(signature, 0x20))\r\n            s := mload(add(signature, 0x40))\r\n            v := byte(0, mload(add(signature, 0x60)))\r\n        }\r\n        return recover1(hash, v, r, s);\r\n    }\r\n\r\n    function recover1(bytes32 hash, uint8 v, bytes32 r, bytes32 s) public pure returns (address) {\r\n        require(uint256(s) <= 0x7FFFFFFFFFFFFFFFFFFFFFFFFFFFFFFF5D576E7357A4501DDFE92F46681B20A0, \"ECDSA: invalid signature 's' value\");\r\n        require(v == 27 || v == 28, \"ECDSA: invalid signature 'v' value\");\r\n\r\n        address signer = ecrecover(hash, v, r, s);\r\n        require(signer != address(0), \"ECDSA: invalid signature\");\r\n\r\n        return signer;\r\n    }\r\n\r\n    function toEthSignedMessageHash(bytes32 hash) public pure returns (bytes32) {\r\n        return keccak256(abi.encodePacked(\"\\x19Ethereum Signed Message:\\n32\", hash));\r\n    }\r\n\r\n}",
  "sourcePath": "C:\\Users\\Admin\\Desktop\\Project\\DemoTruffle\\contracts\\Recover.sol",
  "compiler": {
    "name": "solc",
    "version": "0.8.11+commit.d7f03943.Emscripten.clang"
  },
  "schemaVersion": "3.4.4",
  "updatedAt": "2022-04-12T09:28:13.084Z",
  "networkType": "ethereum",
  "devdoc": {
    "kind": "dev",
    "methods": {},
    "version": 1
  },
  "userdoc": {
    "kind": "user",
    "methods": {},
    "version": 1
  }
}